:1000000023C347C346C345C344C38EC642C341C38B
:1000100040C33FC33EC33DC33CC33BC33AC30000E0
:1000200000000000000000000000000000000000D0
:1000300000F8000000000000003330000000001055
:100040000C06100C0600000000000000000040C07C
:100050007840C0784000043F04043F04040000706E
:1000600088FC08300000001820FF211E0000F00866
:10007000F000E018000000211C031E211E0000F00B
:100080000888700000001E21232419272110101653
:100090000E00000000000000000000000000000052
:1000A00000E01804020000000007182040000002D1
:1000B0000418E00000000040201807000000404045
:1000C00080F0804040000202010F010202000000A7
:1000D00000F0000000000101011F0101010000000B
:1000E00000000000000080B0700000000000000070
:1000F00000000000000000010101010101010000F9
:10010000000000000000003030000000000000008F
:10011000000080601804006018060100000000E084
:1001200010080810E000000F102020100F00001031
:1001300010F8000000000020203F20200000007088
:100140000808088870000030282422213000003080
:100150000888884830000018202020110E00000078
:10016000C02010F8000000070424243F240000F8F9
:100170000888880808000019212020110E0000E0DE
:10018000108888180000000F112020110E00003880
:100190000808C83808000000003F00000000007098
:1001A000880808887000001C222121221C0000E021
:1001B00010080810E0000000312222110F0000009A
:1001C00000C0C0000000000000303000000000004F
:1001D00000800000000000008060000000000000BF
:1001E0008040201008000001020408102000404058
:1001F000404040404000040404040404040000089B
:10020000102040800000002010080402010000704F
:1002100048080808F0000000003036010000C03037
:10022000C828E810E0000718272423140B0000005A
:10023000C038E0000000203C23020227382008F8E4
:10024000888888700000203F202020110E00C030D8
:10025000080808083800071820202010080008F8AF
:1002600008080810E000203F202020100F0008F8A8
:100270008888E8081000203F20202320180008F874
:100280008888E8081000203F200003000000C030EC
:1002900008080838000007182020221E020008F86D
:1002A00008000008F808203F210101213F20000834
:1002B00008F8080800000020203F2020000000006F
:1002C0000808F8080800C08080807F00000008F857
:1002D00088C028180800203F20012638200008F890
:1002E000080000000000203F20202020300008F8F7
:1002F000F800F8F80800203F003F003F200008F811
:1003000030C00008F808203F200007183F00E01028
:1003100008080810E0000F10202020100F0008F837
:1003200008080808F000203F210101010000E0104A
:1003300008080810E0000F18242438504F0008F86F
:10034000888888887000203F2000030C30200070CF
:100350008808080838000038202121221C001808CD
:1003600008F8080818000000203F2000000008F8E6
:1003700008000008F808001F202020201F0008782F
:10038000880000C83808000007380E010000F8088F
:1003900000F80008F800033C0700073C03000818B9
:1003A00068808068180820302C03032C302008381F
:1003B000C800C83808000000203F200000001008D6
:1003C0000808C8380800203826212020180000001E
:1003D00000FE020202000000007F40404000000CCE
:1003E00030C000000000000000010638C00000021C
:1003F0000202FE000000004040407F0000000000BC
:1004000004020202040000000000000000000000DE
:1004100000000000000080808080808080800002DA
:1004200002040000000000000000000000000000C6
:100430008080808000000019242222223F2008F8BA
:10044000008080000000003F112020110E000000FD
:10045000008080800000000E11202020110000008C
:1004600000808088F800000E112020103F2000003E
:10047000808080800000001F222222221300008042
:1004800080F0888888180020203F2020000000008D
:10049000808080808000006B94949493600008F8C2
:1004A000008080800000203F210000203F2000804D
:1004B0009898000000000020203F2020000000004D
:1004C00000809898000000C08080807F000008F8BD
:1004D000000080808000203F24022D302000000892
:1004E00008F8000000000020203F2020000080804D
:1004F000808080808000203F20003F20003F80805F
:10050000008080800000203F210000203F2000006C
:10051000808080800000001F202020201F0080801D
:1005200000808000000080FFA12020110E0000004C
:10053000008080808000000E112020A0FF8080803D
:1005400080008080800020203F21200001000000EA
:1005500080808080800000332424242419000080BF
:1005600080E0808000000000001F202000008080CC
:10057000000000808000001F202020103F2080808D
:1005800080000080808000010E300806010080801D
:100590000080008080800F300C030C300F00008042
:1005A0008000808080000020312E0E31200080806D
:1005B00080000080808080818E701806010000809D
:1005C0008080808080000021302C222130000000BB
:1005D0000000807C020200000000003F404000005C
:1005E0000000FF00000000000000FF00000000020B
:1005F000027C800000000040403F00000000000638
:1006000001010202040400000000000000002000BC
:10061000300031000000000037000000000038000A
:10062000010300000400C8A1A81FDA028D144C4287
:100630003A20200048423A20200002020202020230
:10064000010204081020730711241FBECFE5D2E079
:10065000DEBFCDBF20E0A6E7B0E001C01D92AA3901
:10066000B207E1F710E0A0E6B0E0E2E6FFE002C08A
:1006700005900D92A637B107D9F713E0C4E2D3E095
:1006800003C02197FE0161D4C332D107D1F796D3BD
:1006900066C4B6CCCF92DF92EF92FF920F931F9376
:1006A000CF93DF936C01EB017B01E40EF51E10E0AC
:1006B00000E0CE15DF0561F06991D601ED91FC9166
:1006C0000190F081E02DC6010995080F191FF1CFA7
:1006D000C801DF91CF911F910F91FF90EF90DF90B4
:1006E000CF9008953FB7F894809181009091820057
:1006F000A0918300B091840022B708B601FE05C026
:100700002F3F19F00196A11DB11D3FBFBA2FA92F90
:10071000982F8827BC01CD01620F711D811D911D8D
:1007200043E0660F771F881F991F4A95D1F70895F8
:10073000CF92DF92EF92FF92CF93DF936B017C0118
:10074000D1DFEB01CFDF6C1B7D0B683E7340A0F067
:10075000C114D104E104F10439F4DF91CF91FF9089
:10076000EF90DF90CF90089581E0C81AD108E1089A
:10077000F108C851DC4FE6CFC114D104E104F10403
:1007800009F7EBCFE0918F00F0919000209191005C
:1007900030919200A90141705527309719F4411505
:1007A000510579F035952795820F931F452B41F020
:1007B000DC012D913C91E20FF31F0190F081E02DBF
:1007C000099581E090E00895DDCF0F931F93CF93BB
:1007D000DF938C01D0E0C0E0F801EC0FFD1F6491C5
:1007E000662339F083E990E0CDDF892B11F0219663
:1007F000F3CFCE01DF91CF911F910F910895E0913A
:100800007A00F0917B000994E0917800F0917900F2
:100810000994E0917600F09177000994CF93C82F66
:10082000F3DF811106C0EBDFF4DF80E4EDDF8C2F16
:10083000EBDF809197008F5F80939700CF910895B1
:10084000E8DF80E0E1CF1F93CF93DF93C82F162F0F
:10085000D62FD77080916100D82BF2DF8D2FD4DF97
:100860008C2F82958F708061CFDF8C2F8F70CCDFC3
:10087000C6DFC09399001093980010929700DF9103
:10088000CF911F9108950F931F93CF93DF93C0E0F3
:1008900010E86C2F80E0D7DF80919900012F081BB2
:1008A00061F010939900B5DF80E4AEDFD0E080E026
:1008B000B5DFDF5F0D13FBCFA2DFCF5FC43049F799
:1008C00060E080E0DF91CF911F910F91BCCF8091CC
:1008D0008A0001C0660F8A95EAF780919800860F1A
:1008E00024E030E0261B31098217130609F034F4A6
:1008F000809398006091980080E0A5CF84E0861BEB
:10090000F7CFAF92BF92CF92DF92EF92FF920F9309
:100910001F93CF93DF93A0918800B0918900129626
:100920001C911297C62FD0E011110DC014962C9176
:100930001497AE01421B51091896ED91FC9119973D
:10094000E40FF51F14911396BC9000918700E12EDF
:10095000F12C4091990020E830E02E193F09421710
:10096000130619F014F06B2DB2DF809199008E0DF3
:100970009F2D911D800F911D813891050CF000E095
:10098000A0918800B091890014968C911497C81B8F
:10099000D10971F012968C91129713966C9113975E
:1009A00070E08823C9F090E0BFD2BE01BDD2EC0157
:1009B000AB2C2FDF80E428DFCE01282F2C1B211742
:1009C00008F438C0CE0DDF1DD12C0D1509F443C03D
:1009D00080E024DFD394F9CFAE01F4E0569547953B
:1009E000FA95E1F730E020E090E080E0421753070D
:1009F00081F06901CC0CDD1C1696ED91FC911797E6
:100A0000EC0DFD1DC590D4908C0D9D1D2F5F3F4FAB
:100A1000EDCF9E01207F2C173D0740F61896ED91F3
:100A2000FC911997E20FF31FE4918E0F911D2F5F38
:100A30003F4FF1CF6C012FEFC21AD20AE09188002C
:100A4000F09189000190F081E02DE80FF91F849169
:100A5000E5DEC601B2CFD3DE6091980031E06F5F72
:100A6000809199003A1528F06B1980919900810FB7
:100A7000800FE9DEAA94A1109CCFDF91CF911F9146
:100A80000F91FF90EF90DF90CF90BF90AF900895BF
:100A90006D3031F1E0918800F09189006A3011F4F5
:100AA000638115CF24816217D8F025812617C0F005
:100AB00020918D0030918E00A90155954795840FA6
:100AC000951FE0918B00F0918C0020FF08C0DC01A5
:100AD0002D913C91E20FF31F0190F081E02D0994DC
:100AE0000895EF92FF920F931F93CF93DF93D0E07F
:100AF000C0E090E8E92EF12C082F10E0C7010C2E81
:100B000002C0959587950A94E2F780239123892B5B
:100B1000A1F082E196E059DEC330D10519F48EE0F0
:100B200096E053DE2196C830D10541F7DF91CF9191
:100B30001F910F91FF90EF90089580E196E0EBCF29
:100B40008EB98BE295E09A95F1F700008DB9B29BD2
:100B5000FECF92E09A95F1F700C08DB9769BF2CF67
:100B600085E08A95F1F700008FB19FEF9FB9B89AA1
:100B70000895C2988FB980EFE3DFB8988EEFE0DF79
:100B8000809581700895C29AB29BFECF82E08A95CB
:100B9000F1F700C0C09882E08A95F1F700C0C298D2
:100BA000C09A779B0BC0C29888E78FB980EFC8DFE7
:100BB000B8988EEFC5DF80958170089580E0089524
:100BC000C098C29AB29BFECF82E08A95F1F700C02E
:100BD000C09A85E08A95F1F7000080E00895C09AF8
:100BE000C29ABA9AB89A8FEF8FB98AE28DB980EF1C
:100BF0008EB9C9DF811106C06AE070E080E090E044
:100C000097DDF7CFDDCF90E0FC01E05EF94F349146
:100C1000FC01E05CF94F2491FC01E65CF94FE491A2
:100C2000EE23B9F0332329F03130A1F48AB58F7760
:100C30008ABDF0E0EE0FFF1FE65EF94FA591B4917B
:100C40008FB7611118C0F894EC9120952E232C9346
:100C50008FBF0895323019F48AB58F7DE9CF3330D4
:100C600021F480B78F7D80BFE4CF343011F78CB58D
:100C70008F7D8CBDDECFF894EC912E2BE8CFEF92D8
:100C8000FF921F93CF93DF93C7E0D0E010E061E0C5
:100C900084E0B9DF86B381FBEE24E0F8F12CC701D4
:100CA0000C2E01C0880F0A94EAF7182B60E084E04C
:100CB000AADF219760F7812FDF91CF911F91FF90DD
:100CC000EF900895CF93DF9390E0FC01E05CF94F43
:100CD0002491865C994FFC0184918823D1F090E0A7
:100CE000880F991FFC01EC5EF94FA591B491FC01AE
:100CF000E65EF94FC591D49161110EC09FB7F8948B
:100D00008C91E22FE0958E238C932881E223E88357
:100D10009FBFDF91CF9108958FB7F894EC91E22BAC
:100D2000EC938FBFF6CF17D11F920F920FB60F9291
:100D300011242F933F938F939F93AF93BF938091F1
:100D40007D0090917E00A0917F00B0918000309155
:100D50007C0026E0230F2D3768F129E8230F039646
:100D6000A11DB11D20937C0080937D0090937E0097
:100D7000A0937F00B09380008091810090918200C9
:100D8000A0918300B09184000196A11DB11D8093B4
:100D9000810090938200A0938300B0938400BF9160
:100DA000AF919F918F913F912F910F900FBE0F9018
:100DB0001F9018950296A11DB11DD4CF83E08ABD66
:100DC00083BF789489B7826089BF80E48CBD8FEF40
:100DD0008DBD87EC80BF86E886B960E081E072DF78
:100DE00061E083E06FDF61E084E06CDFE09185002B
:100DF000F0918600099524DDC6E2D6E08EE2E82E69
:100E000086E0F82EFE011491812FFEDC811104C0D2
:100E1000F6DC16DD812FF8DC2196EC16FD0691F745
:100E2000EEDC8AE690E0909389008093880010922F
:100E3000870088E495E09093900080938F00109253
:100E400092001092910081E894E090938C0080933E
:100E50008B0010928E0010928D0010928A0013DD8C
:100E6000EFDC8FEAD1DCCBDC8091610094E0892754
:100E70008093610010E260E083E0C5DE60E084E022
:100E8000C2DE61E084E0BFDE61E083E0BCDEF7DE6D
:100E9000C82FF5DE8095C095D82FF5DC60E080E0A6
:100EA000D2DC84E396E091DC8D2F1BDE62E080E0F3
:100EB000CADC8EE296E089DC8C2F13DEC0916000E4
:100EC000C127C0936000BCDC8C2F9EDC98DC809135
:100ED000610094E089278093610062E370E080E024
:100EE00090E026DCC8CFE3E9F0E0138212828FEEB7
:100EF00095E0909386008093850083EC95E0909335
:100F000077008093760089EB95E090937900809349
:100F1000780080EE95E090937B0080937A0086E6DF
:100F200090E09183808308950024552704C0080E23
:100F3000591F880F991F009729F076956795B8F388
:100F40007105B9F7802D952F0895EE0FFF1F0590BD
:100F5000F491E02D099481E090E0F89400C0F894B9
:020F6000FFCFC1
:100F620040B000000000E4034A031E000802207E95
:060F720000000000000079
:00000001FF
